:020000040800F2
:10000000682F002005030008B12F0008612E0008AA
:10001000AD2F0008751300086D4200081703000893
:10002000000000000000000000000000B1340008E3
:100030007913000800000000E12F0008593500087E
:100040002103000821030008210300082103000800
:1000500021030008210300082103000821030008F0
:1000600021030008210300082103000821030008E0
:1000700021030008210300082103000821030008D0
:1000800021030008210300082103000821030008C0
:1000900021030008210300082103000821030008B0
:1000A00021030008210300082103000821030008A0
:1000B0002103000821030008210300082103000890
:1000C0002103000821030008210300082103000880
:1000D0002103000821030008210300082103000870
:1000E0002103000821030008210300082103000860
:1000F0002103000821030008210300082103000850
:10010000210300082103000821030008210300083F
:10011000210300082103000821030008210300082F
:10012000210300082103000821030008210300081F
:10013000210300082103000821030008210300080F
:1001400021030008210300082103000821030008FF
:1001500021030008210300082103000821030008EF
:1001600021030008210300082103000821030008DF
:100170002103000800000000210300080000000027
:1001800021030008210300082103000821030008BF
:1001900021030008210300082103000821030008AF
:1001A000210300082103000821030008210300089F
:1001B00021030008000000002103000821030008BB
:1001C00021030008000000002103000821030008AB
:1001D000210300082103000821030008210300086F
:1001E000210300082103000821030008210300085F
:1001F0000000000000F002F800F075F814A696E880
:10020000000CB244B344DA4501D100F06CF8BAE80E
:100210000F000FA696E83000A5EB040504EB0607D7
:10022000AAEB0704A7F101074FEA15154FEA3414AA
:10023000A4F10104AC4201D300F055F813F0010F12
:1002400018BFFB1A43F0010300F001F8DBE7184781
:10025000185F0000385F0000103A24BF78C878C1EA
:10026000FAD8520724BF30C830C144BF04680C60BC
:10027000704700007047000000230024002500267E
:10028000103A28BF78C1FBD8520728BF30C148BFF9
:100290000B607047662905F0A083642900F0608137
:1002A000752900F05D81632900F0E385732900F072
:1002B000E885002070471FB505F07DFB9DE8030031
:1002C00000F0ECFA00F058FE04000020002105F0D8
:1002D0004DF8401C60600020002105F031F8E0601E
:1002E0001FBD10B510BD00F0B5FF1146FFF7E3FFCD
:1002F00003F0E8FF00F0E1FF03B4FFF7F2FF03BCF7
:1003000001F012F80A4880470A480047FEE7FEE776
:10031000FEE7FEE7FEE7FEE7FEE7FEE7FEE7FEE7B5
:10032000FEE7000004480549054A064B70470000F7
:100330006D360008F501000868290020682F0020AC
:10034000682B0020682B002070B5064600F086FA66
:10035000056806F10B0020F00704B4429CBF0020A2
:1003600070BD2B466A68BAB11068A04210D304F180
:10037000080188423CBF5068586007D35168101983
:1003800041601168091B016058601460101D70BD48
:1003900013465268002AE7D12146284600F06AFA3F
:1003A0000028DED170BD53EA020C00F069802DE90F
:1003B000F04B4FF00006002B1FBFB3FA83F503FA92
:1003C00005F424FA05F65E4012BF1643B2FA82F530
:1003D00002FA05F4C5F120051EBF22FA05FC44EA25
:1003E0000C04203556EA044C4FEA144418BF641C30
:1003F0004FF000084FF00009904271EB030C39D325
:10040000002919BFB1FA81F701FA07F6B0FA80F7AF
:1004100000FA07F6C7F120071EBF20FA07FC46EADC
:100420000C062037B6FBF4FCA7EB0507103F07F0DE
:100430001F0BCBF120062CFA06F60CFA0BFB44BF7F
:10044000B3460026202FA4BF5E464FF0000B5BEAA8
:10045000060C08BF4FF0010B19EB0B0948EB06081F
:10046000ABFB027C06FB02CC0BFB03CCC01B71EB8D
:100470000C01C1E70B46024641464846BDE8F08BF9
:1004800013B5084318BF4FF0FF300146AFF30080AB
:10049000BDE81C40704700000FB41CB5074B06AA0E
:1004A0007B4469460090059800F0C1FC0020694635
:1004B00000F0D0FC1CBC5DF814FB0000B10900008A
:1004C00070B5044685690068C10601D5302600E094
:1004D0002026C00707D070BDD4E9012130469047DF
:1004E000206A401C20626D1EF6D570BD70B50446B2
:1004F00085690078C00707D170BDD4E901212020AB
:100500009047206A401C20626D1EF6D570BD70B504
:100510000C460546012A05D02878800600D5EA69F0
:10052000002302E0012305E05B1C934202D2E05C61
:100530000028F9D1A869E618C01AA861286A1844E9
:1005400028622846FFF7BCFF04E0D5E9012114F832
:10055000010B9047B442F8D32846FFF7C7FF70BDA0
:100560002DE9F0410646002410687529314616A58C
:1005700010D0AFF30080002802DA404213A507E054
:1005800031688A0701D512A502E0490704D511A5F3
:10059000012401E0AFF3008000210A2206F12407C4
:1005A00009E0B0FBF2FCB0FBF2F302FB1C003030C0
:1005B00078541846491C0028F3D123462A46304671
:1005C000BDE8F04100F0C6B9000000002D000000B9
:1005D0002B000000200000002DE9F0474FF0000A3A
:1005E00089460446C0F820A02046E16888470028D4
:1005F00076D0252806D0D4E901219047206A401CF6
:100600002062F1E7E168204600258847C4F81CA075
:1006100006460027C4F818A02A2E09D0304604F058
:1006200087FE38B304EB8708303EC8F8186019E03D
:1006300059F8041B204604EB87029161E168884762
:10064000012F064618D1E069002820DA25F02005A0
:100650001DE0D8F8180000EB800006EB40003038B1
:10066000C8F818002046E1688847064604F060FE96
:100670000028EED1012F0AD02E2E08D12046E168A5
:1006800088477F1C0646022F45F02005C4DBA06981
:10069000002803DA404245F00105A061E80701D0D7
:1006A00025F01005B6B1A6F14100192802D8203670
:1006B00045F400654A463146204625604D46FFF721
:1006C000E9FD58B1012806D0ED1D25F0070000F125
:1006D000080989E704E005F1040985E730468AE75F
:1006E000206ABDE8F08770B5064600F0BBF80468E4
:1006F000054630460A22002100F0C7FB2C6070BD81
:10070000032A40F2308010F0030C00F0158011F83D
:10071000013BBCF1020F624498BF11F801CB00F815
:10072000013B38BF11F8013BA2F1040298BF00F869
:1007300001CB38BF00F8013B11F0030300F0DD836B
:10074000083AC0F0088051F8043B083A51F804CB4D
:10075000A0E80810F5E7121D5CBF51F8043B40F813
:10076000043BAFF30080D20724BF11F8013B11F81E
:1007700001CB48BF11F8012B24BF00F8013B00F862
:1007800001CB48BF00F8012B70474FF0000200B5C5
:10079000134694469646203922BFA0E80C50A0E8A4
:1007A0000C50B1F12001BFF4F7AF090728BFA0E852
:1007B0000C5048BF0CC05DF804EB890028BF40F81E
:1007C000042B08BF704748BF20F8022B11F0804F60
:1007D00018BF00F8012B704730B44FF0013C50F8BF
:1007E000042B51F8043BCCFA52F4D51A20D1FCB9B1
:1007F00050F8042B51F8043BCCFA52F4D51A17D117
:10080000B4B950F8042B51F8043BCCFA52F4D51A81
:100810000ED16CB950F8042B51F8043BCCFA52F4C9
:10082000D51A05D1002CDAD030BC4FF0000070474B
:1008300029BAB1FA81F111F01801D1F120008440F8
:10084000F2D1CA40CB4012F0FF0213F0FF0330BCDC
:10085000D01A7047704770477047000000487047D3
:1008600018000020004870471000002070477047B3
:100870007047704738B504460A4600206946AFF312
:100880000080002808BF38BD02460099204600F0CD
:1008900077FB012038BD012000F0D4BCF8B5AFF3E0
:1008A0000080054600200C460C2000BF0646A81913
:1008B000A0420DD9324669460020AFF30080070000
:1008C00008BF00F0BFFC0098A04218BF0546C4193D
:1008D000FFF7C4FF05600746F01D20F0070046192A
:1008E000284600F00AF8B44208BFF8BDA21B314602
:1008F0003868BDE8F84000F043BB0021016041606A
:1009000070470C20704770B50446051FFFF7A6FF1F
:100910000068002C14BF446870BD002C18BFAC42A6
:100920003CBF20466468F8D301680A18AA4218BF81
:10093000456003D12A6805461144016028684119C1
:10094000A1421CBF6C6070BD616869602168084489
:10095000286070BD2DE9F0470D4699469246044641
:1009600000F124080168880604D5E06921F010012F
:10097000216000E00120A84201DD471B00E00027C4
:10098000A1697A1902EB0900081AA0612078C00653
:1009900002D42046FFF794FD002608E0D4E90121A7
:1009A0001AF806009047206A401C761C20624E45CB
:1009B000F4DB2078C0060AD52046FFF781FD06E06B
:1009C000D4E9012130209047206A401C2062381E63
:1009D000A7F10107F4DC07E0D4E9012118F80500CC
:1009E0009047206A401C2062281EA5F10105F3DC17
:1009F0002046FFF77BFD2078000602D50220BDE8E7
:100A0000F0870120FBE72DE9FF4F0C461E464FF013
:100A1000FF378BB0D2E90001DDF860800A908A468A
:100A2000C1F30A5505B93D46002108464FF00000C4
:100A3000BAF1000F00F4400005DA00EB80004FF43B
:100A4000400101EA50004FEA9059B9F1010F00DD71
:100A5000B9460A9850EA4A000ED044F61050A5F262
:100A6000FF3545432F14B8F1000F1ED07542291EE3
:100A70001EDDC9F100021CE0B8F1010F4FF00000CB
:100A800001D0302103E0F24305E02154401CB04284
:100A9000FBDB30460022002121540B99C1F808806D
:100AA000C1E900200FB0BDE8F08FBD1B6D1CDEE773
:100AB0004A4600DA694206A800F052FB06AB93E80A
:100AC000070003AB83E8070050460A9904F04FF88B
:100AD0008DE80700A0F500501F3800900398002D06
:100AE0000ADD42F21F014A460844002303A903908D
:100AF000684604F0B9FA09E0A0F500504A461F38EC
:100B0000002303A90390684604F0C3FA8DE80700A8
:100B10000004000C03D04FF0FF30410800E0104605
:100B2000B8F1000F03D00022009215461EE0751E9A
:100B300005D400F03FFA303262556D1EF9D5B34648
:100B40000122084302D000227F1C04E020783028D4
:100B500001D100227F1E002A099784D01DE0112DAB
:100B600007DA00F027FA303262556D1C50EA0102B4
:100B7000F5D1084302D00098C8B10EE00021681EEC
:100B800005E0235C625C63542254401E491C814290
:100B9000F7DBAB46A81B401E0990002004F80B00B1
:100BA0000B98099AC0F80880C0E9002B7AE7112653
:100BB0004FF0000857E72DE9F04F88460446D21D54
:100BC00022F0070191B0D1E90001CDE90A0104F05A
:100BD00097FB02460B98C00F01D02D2007E020683C
:100BE000810701D52B2002E0202101EAC000032A61
:100BF000099001D0072A05DB03464146204600F054
:100C00001FFA0BE12078800601D5E06900E006209C
:100C1000B8F1650F814606D0B8F1660F18D0B8F16B
:100C2000670F70D131E00020B9F1110F009001DBA6
:100C3000112301E009F101030AAA01A90CA8FFF799
:100C4000E2FEDDE90C70002609F10105834647E06C
:100C500001204B4600904FF000470AAA01A90CA8BA
:100C6000FFF7D1FEDDE90DB00C995D46002610B905
:100C700009F101000D18B9EB050003D4C0F1FF36EE
:100C800009F10105A5EB09002BE0B9F1010F01DA2B
:100C90004FF001090020B9F1110F0090484601DD25
:100CA000112300E003460AAA01A90CA8FFF7ABFE36
:100CB000DDE90C704D4600268346207800070AD4F3
:100CC000AB4500DA5D4601A8012D04DD411911F89C
:100CD000011C302907D04F4502DA17F1040F04DA5E
:100CE000012082460FE06D1EEEE7002F02DCED1BB7
:100CF0003E4403E0781CA84200DD7D1CB81B00F1D7
:100D0000010A4FF000472078000703D4AA4501DB11
:100D10004FF0FF3A0021B7F1004F0DF143088DF875
:100D2000431024D002202B23002F01DA7F422D23F1
:100D30000A21021EA0F1010000DC5FB197FBF1FC6B
:100D400097FBF1F201FB1C7C17460CF1300C08F804
:100D500001CDEEE7A8F1010003702188090501D556
:100D6000452100E06521A0F1010800F8011C099867
:100D70000FA9A1EB0807FF1D00B10120411901EBEC
:100D8000EA70A1693844081A401EA0612078C006A4
:100D900002D42046FFF794FB099828B1D4E9012139
:100DA0009047206A401C20622078C00622D5204649
:100DB000FFF786FB1EE0002E04DBB34502DD01A831
:100DC000805D00E03020D4E901219047206A401C7A
:100DD0002062761CAAF101005FEA000A0AD100F045
:100DE000CBF8C0680168405CD4E901219047206AD3
:100DF000401C2062281EA5F10105DCDC07E0D4E9D7
:100E0000012118F8010B9047206A401C2062381E0F
:100E1000A7F10107F3DC2046FFF768FB032011B0C0
:100E200041E6000001694A1C02610878704700B57C
:100E30008FB0CDE901310021059105497944CDE913
:100E4000031011466846FFF7C7FB0FB000BD000056
:100E5000E5FFFFFF0A6802F8010B0A60704710B552
:100E6000436913B1AFF3008001E0FFF750FB0120AD
:100E700010BD127800F124010A7000224A7001228C
:100E8000EDE711684FF0FF32E9E72DE9F0479146B1
:100E90000F4680460446002614F8015B2DB100F091
:100EA00063F80068405DC007F6D12B2D02D02D2DD0
:100EB00018D0641E4A463946204600F001F927B191
:100EC0003968A14201D1C7F800804FF002047105D2
:100ED0000BD54042002803DDFFF7C4FC0460A007E7
:100EE000BDE8F08746F48066E4E70028F8DAFFF70B
:100EF000B9FC04606FF00040F2E710B5203AC0F092
:100F00000B80B1E81850A0E81850B1E81850A0E8DC
:100F10001850203ABFF4F5AF5FEA027C24BFB1E875
:100F20001850A0E8185044BF18C918C0BDE81040B8
:100F30005FEA827C24BF51F8043B40F8043B08BFC1
:100F40007047D20728BF31F8023B48BF11F8012B88
:100F500028BF20F8023B48BF00F8012B7047000073
:100F6000004870471000002010B500F005F8001D83
:100F700010BD00BFF943000000487047300000205A
:100F8000034640688C46002818BF88423CBF034691
:100F90004068F8D318681844884207D00CF1030061
:100FA00020F00700001D411A521A0146081D0A6070
:100FB000FFF7A9BC30B5B0F10A0271F100034FEAA6
:100FC000900E4EEA817EB0EB0E0061EB91014FEA8C
:100FD000101E4EEA017E10EB0E0041EB11114FEA9C
:100FE000102E4EEA016E10EB0E0041EB11214FEA7C
:100FF000104E4EEA014E10EB0E0041EB114140182D
:1010000041F100014FEAD00040EA41704FEAD101BE
:101010004FEA810444EA907410EB800544EB01042C
:101020006D1944EB0404521BA3414FF0000348BF69
:101030000A3200D530BD401C41F1000130BD000036
:101040002DE9F0411F46044603260168072A01F4F2
:10105000006004DB08B116A505E016A503E008B1A1
:1010600015A500E015A521F010002060A069C01EA4
:10107000A0610FB1401EA0612046FFF721FA4FB1D9
:10108000D4E9012138469047206A401C2062C01CE8
:10109000206206E0206AFAE7D4E9012115F8010B85
:1010A0009047761EF8D22046FFF720FABDE8F0817F
:1010B0004E414E006E616E00494E4600696E6600FC
:1010C0002DE9F05F824615468B4600270AF10104A0
:1010D000B9460078302801D09DB113E014F8010B17
:1010E0000127782803D0582801D045B10AE00DB176
:1010F000102D07D1002714F8010B102502E0082558
:1011000000E00A250026B0460EE005FB080005FBBE
:1011100006F101271FFA80F801EB1046B6F5803F73
:1011200000D3B94614F8010B294600F0B8F800289E
:10113000EBDABBF1000F05D00FB1641E00E054469E
:10114000CBF80040B9F1000F06D0FFF78BFB02216E
:101150000160C81EBDE8F09F48EA0640FAE70000BB
:101160002DE9F047814616468AB0354878440DC8C7
:101170008DE80D0032487844801C03AC0DC884E82B
:101180000D0041F69B300844372190FBF1F290FBB3
:10119000F1F5A5F1800501FB12041B3C02D5644268
:1011A000012000E00020DFF898A080460027FA44E4
:1011B000AAF1BE0A0EE0E0070AD03246684607EB05
:1011C000470101230AEB810103F063FF8DE807006B
:1011D00064107F1C002CEED1194F7F44AE3F19E004
:1011E000E80715D007EB04100DF1180A90E80E007F
:1011F0008AE80E00C068F04201D198190890324682
:10120000012306A903A803F044FF03AB83E807000A
:101210006D10641C002DE3D14FF001033246694686
:10122000B8F1000F03A802D003F01EFF01E003F0A5
:1012300030FFC9E90001C9F808200AB0BDE8F0870D
:10124000EC48000010B500F047F8BDE8104000F091
:101250003DB870477546FFF783FEAE460500694608
:10126000534620F00700854618B020B5FFF75AF81E
:10127000BDE820404FF000064FF000074FF0000897
:101280004FF0000BAC46ACE8C009ACE8C009ACE8D4
:10129000C009ACE8C00921F007018D4670473A2823
:1012A00000D2303820F02002412A01D3A2F13700C9
:1012B000884201D34FF0FF30704710B50446AFF3BA
:1012C00000802046BDE81040FFF716B8002801D086
:1012D00000F02AB87047000010B5012805D00021A1
:1012E00003A000F027F8012010BD09A1F8E70000D5
:1012F00053494752544D454D3A204F7574206F66FF
:101300002068656170206D656D6F72790000000066
:101310003A2048656170206D656D6F727920636F4A
:10132000727275707465640001491820ABBEFEE7E7
:101330002600020070B505460C460A2000E06D1C30
:1013400000F011F835B128780028F8D102E0641CCB
:1013500000F009F814B120780028F8D1BDE87040F9
:101360000A20AFF3008008B569468DF8000003201D
:10137000ABBE08BDFEE7000070470000EFF3108031
:1013800072B600BFFEE70000884211BF002040F2A5
:101390007101C2F20001087008BF0120704700000F
:1013A000B0B50C46054600BFA878E178FFF7ECFF22
:1013B0000028F9D128462146FFF70EFA0128BCBFC4
:1013C0000020B0BD40F28800C2F200000A21016096
:1013D0000120B0BD0238B0FA80F04009704700002B
:1013E0002DE9F04F82B00A680191002A00F0C88010
:1013F00000F13C4303F1FF73870547EA932341F66D
:101400000007C4F2022707210646B84208BF06219A
:101410004FF0000B4FF0000A00270025062B38BFC5
:10142000194600910CE000BF0198013502680237AF
:1014300032FA05F10AF1040A0BF1080B00F0A08062
:10144000012101FA05F912EA0900EDD00199032200
:10145000D1F8048002FA07FC08F0030EAEF1010493
:10146000012C6FEA0C0315D8D6F808C001990CEAD4
:10147000030CCA6802FA07F444EA0C04B460D6F814
:1014800004C0C8F300142CEA090CAC4044EA0C0474
:10149000746005E0BEF1030F02D14FF0030E27E0A8
:1014A000F46801991C408A68BEF1020F02FA07F243
:1014B00042EA0402F2601BD16FF0030202EA550215
:1014C0000AF01C0406EB0209D9F820C001990F228A
:1014D000D1F8108002FA04FE2CEA0E0C08FA04F48B
:1014E00044EA0C04C9F82040D1F8048008F0030E47
:1014F00032680EFA07F41A40224318F4403F326073
:1015000092D04FF2004125F00302C4F2020101EB38
:10151000020EDEF860C00BF018040F22009BA24000
:101520002CEA020203FA04F42243CEF860200A688F
:10153000019BB4465C6842EA0003E60258BF22EA17
:1015400000030B604A68A60242EA000358BF22EA81
:1015500000034B60D1F88420A60342EA000358BF81
:1015600022EA0003C1F88430D1F88020E60342EA81
:101570000003664658BF22EA0003C1F8803053E7F3
:1015800002B0BDE8F08F000042F66410C2F2000025
:101590000068704740F20041C4F203010A68D207B4
:1015A0001CBF012070470A6822F004021043086043
:1015B0000020704740F20041C4F20301086840F087
:1015C000010200200A60704740F2000042F66411F8
:1015D000C2F20000C2F2000100780A6810440860FC
:1015E0007047000080B5042000F060F801F0EAFFC9
:1015F000072000F009F800281CBF012080BD00F082
:101600002BF8002080BD000070B540F20006C2F249
:1016100000063178002904BF012070BD044640F265
:101620000800C2F200004FF47A720068B2FBF1F1D8
:10163000B0FBF1F001F066F8072C4FF0010508D877
:1016400038B94FF0FF3021460022002500F01EF887
:101650007460284670BD000082B041F25800C4F2A8
:101660000200816841F001018160816801F001019F
:1016700001910199016841F080510160006800F01A
:1016800080500090009802B000F05EB870B514462B
:101690000D46064602F0ECFD2946224601F08AFC82
:1016A00001463046BDE8704002F0EABD02F0FABDE6
:1016B00070B547F21405C4F2000555F8146C0446E1
:1016C00000F05EF8B0F5004F3CD055F8080C00046F
:1016D00038D406F4C060A04204BF002070BD55F8A5
:1016E000140C45F6C52120F4C060204345F8140CC5
:1016F00040F20800C2F200000068C0F67C214009F8
:10170000A0FB0101C80900EB800000BF2968490562
:1017100011D5411C0FD0296849050CD558B129684D
:10172000490508D5012806D02968490503D50228AE
:10173000A0F10400EAD128680321400501EAE07025
:1017400070BD00BF012070BD47F20800C4F2000068
:10175000016841F4804101607047000047F20400D5
:10176000C4F20000016841F400710160704700009C
:1017700047F20000C4F20000006800F4C060704747
:1017800047F21000C4F2000001684FF40042C804A0
:101790004FF4805058BF22EA010070472DE9F0470E
:1017A00082B00446407841F288070007C4F202077D
:1017B00032D5E06E4FEA701104290DD8DFE801F050
:1017C00004121E27270000BF201D002101F0ECFCA1
:1017D000064668B91AE000BF01266078C0060AD53F
:1017E0001EE000BF04F1200001F07AFD064668B15A
:1017F0006078C00614D4B24651E000BF57F87C1C94
:1018000041F4803147F87C1C01E000BFE06E79694B
:1018100021F0E0010843786100266078C006EAD52F
:10182000206F4FEA302004280CD8B246DFE800F0E1
:1018300004122417170000BF201D002101F0B4FC82
:101840000CE000BF4FF0010A4FF00108A0788007BC
:101850000CD528E004F1200001F042FD8246BAF1E7
:10186000000FD04613D0A07880071CD446462068CD
:10187000C10751D0A3E000BF57F87C0CB24640F43A
:10188000803047F87C0CBAF1000FD046EBD1786974
:10189000216F20F4E06008434FF0000A7861B04601
:1018A000A0788007E2D557F8300C5FEAC0090BD466
:1018B00057F8300C40F0805047F8300C57F8300C97
:1018C00000F080500190019847F20005C4F2000535
:1018D000286840F480702860FFF756FE064600BF77
:1018E0002868C0050ED4FFF74FFE801B0328F7D3EE
:1018F0002868C00506D44FF0030A0326B9F1000F8B
:1019000007D453E0BAF1000F56461BD0B9F1000FCF
:101910004CD52068C10752D1810758D441075ED405
:10192000010764D4C1066AD4810671D4810578D4D4
:10193000410500F17F80410200F18580800100F1C6
:101940008A80B5E0B86810F4407022D0D4F89010C6
:1019500088420BD0B868B96820F4407041F48031F7
:10196000B960B96821F48031B960B860C00710D09F
:10197000FFF70AFE054641F2893600BFB8688007C6
:1019800007D4FFF701FE401BB042F7D3B8688007C9
:10199000B1D5B868D4F8901020F4407008434FF0E7
:1019A000000A4646B860B9F1000FB2D457F8300CBF
:1019B00020F0805047F8300C2068C107ACD039685F
:1019C000626B21F00301114339608107A6D53968A4
:1019D000A26B21F00C01114339604107A0D5396891
:1019E000E26B21F030011143396001079AD5396863
:1019F000226C21F0C00111433960C10694D53968C9
:101A0000626C21F440711143396081067FF58EAF1D
:101A10003968A26C21F440611143396081057FF57A
:101A200087AF3968E26D21F44021114339604105E7
:101A30007FF581AF3968226E21F44011114339607E
:101A400041027FF57BAF3968626E21F4400111439A
:101A5000396080012CD5A06E60B1B0F1007F19D043
:101A6000B0F1807F40F0908057F87C0C40F48010FB
:101A700047F87C0CBAF1000F14D0216848061BD43B
:101A8000080621D4C80527D4C8022DD4880433D42D
:101A900044E000BF201D002101F086FB8246BAF120
:101AA000000FEAD13868A16E20F04070084338601A
:101AB000B24621684806E3D53868E26C20F440500D
:101AC000104338600806DDD53868226D20F44040A8
:101AD00010433860C805D7D53868626D20F44030AF
:101AE00010433860C802D1D57869A26D20F0030098
:101AF00010437861880411D53A68606F22F0406223
:101B00000243B0F1806F3A6032D0B0F1006F05D17E
:101B100057F87C0C40F4801047F87C0C080341D542
:101B2000A06FB0F5804F09D1786940F480407861AA
:101B300057F87C0C40F4803032E000BF3A68B0F1D6
:101B4000006F22F0406242EA00023A607A6922F4B1
:101B500080427A6120D0B0F1806F23D1201D012115
:101B600001F022FB2168002818BF82461AE000BF5E
:101B7000201D012101F018FB2168002818BF8246B2
:101B80000803CDD40EE000BF4FF0010A21684806DB
:101B90007FF576AF90E700BF57F87C0C40F48010DB
:101BA00047F87C0C480311D53A68E06F22F0406298
:101BB0000243B0F1806F3A601ED0B0F1006F05D1E2
:101BC00057F87C0C40F4801047F87C0C48041DD575
:101BD0003868D4F8802020F040501043B2F1805F84
:101BE000386013D1201D022101F0DEFA216800289F
:101BF00018BF82460AE000BF201D012101F0D4FA7F
:101C00002168002818BF82464804E1D4C80307D4DD
:101C100088020ED4C80115D4504602B0BDE8F08742
:101C20007869D4F8842020F0040010437861880299
:101C3000F0D57869D4F8882020F018001043786136
:101C4000C801E9D57869D4F88C1020F44010084315
:101C5000B1F5001F7861DFD157F87C0C40F480109B
:101C600047F87C0C504602B0BDE8F0872DE9F047FC
:101C7000002800F0D18042F20008C4F202080446B5
:101C8000D8F800000D4600F00F0088420DD2D8F8B9
:101C9000000020F00F002843C8F80000D8F800002A
:101CA00000F00F00A84240F0B780206841F2080A17
:101CB0008107C4F2020A0DD5A168DAF8002002F00B
:101CC000F002914206D9DAF8002022F0F002114326
:101CD000CAF80010C00754D06068B8B102281BD001
:101CE00003281FD15AF8080C800140F1958001F0BB
:101CF00057FB4BF20041C0F2C441884224D9DAF8C4
:101D0000000010F0F00F1FD1A6E000BF5AF8080C39
:101D100080070BD480E000BF5AF8080C800305D47C
:101D20007AE000BF5AF8080C400575D500F0D4F8E9
:101D30004BF20041C0F2C441884205D9DAF80000F4
:101D400010F0F00F00F088804FF00009DAF8000082
:101D5000616820F003000843CAF80000FFF714FC94
:101D6000DAF80010626801F00C01B1EB820F57D174
:101D7000B9F1000F05D0DAF8000020F0F000CAF841
:101D80000000206881070DD5A168DAF8002002F074
:101D9000F002914206D2DAF8002022F0F00211435C
:101DA000CAF80010D8F8001001F00F01A9420CD9B0
:101DB000D8F8001021F00F012943C8F80010D8F816
:101DC000001001F00F01A94226D1410707D5DAF82A
:101DD0000010E26821F4E0611143CAF80010000726
:101DE00008D5DAF80000216920F4605040EAC1000B
:101DF000CAF8000000F03AF840F20401C2F2000113
:101E0000096840F208030246C2F2000308461A605D
:101E1000BDE8F047FFF7F8BB0120BDE8F08700BF41
:101E2000064641F2883706E08000DAF8001001F03B
:101E30000C0181429CD0FFF7A7FB811B6068B9426F
:101E4000F2D9DAF80010800001F00C0181421CBFC9
:101E50000320BDE8F087E8E7DAF80000082161F325
:101E600007104FF00109CAF800006FE780B500F0D5
:101E700033F841F20801C4F20201096845F6742200
:101E8000C1F30311C0F60002515CC84080BD0000E0
:101E900080B5FFF7EBFF41F20801C4F202010968C7
:101EA00045F68422C1F30221C0F60002515CC8400D
:101EB00080BD000080B5FFF7D9FF41F20801C4F2F0
:101EC0000201096845F68422C1F3C221C0F600026E
:101ED000515CC84080BD000041F20C01C4F2020117
:101EE00051F8040C10F00C0208680FD00C2A04BF43
:101EF00000F00300012809D042F20040042AC0F299
:101F0000F40018BF082A37D1704700BF51F80C0CF5
:101F1000000703D4D1F88800000A02E051F80C0C45
:101F2000000945F68C2300F00F00C0F6000353F8BB
:101F30002030002A184618BF00200C2A18BF70470E
:101F400008680A68800742F20040C2F30312C0F238
:101F5000F40058BF18460B6801320968B0FBF2F074
:101F6000C3F30622C1F3416102FB00F0022202EB3F
:101F70004101B0FBF1F0704700200023DDE70000D5
:101F8000002804BF012070472DE9F04182B041F2E2
:101F900000060446C4F20206B068F168227800F038
:101FA0000C07D00601F003081CD42078C00700F00D
:101FB000F580082F66D00C2F08BFB8F1030F61D051
:101FC0006068B0F5803F07D0B0F5A02F40F0C0802A
:101FD000306840F480203060306840F480303060F9
:101FE000BFE000BF27B30C2F08BFB8F1010F1FD00F
:101FF000E1693068002900F0898040F0010030601C
:10200000FFF7C2FA316889076ED4054603E000BFC6
:102010003068800768D4FFF7B7FA401B0328F7D36E
:1020200030688007F4D4032002B0BDE8F08100BF1F
:102030003068800703D5E069002800F07382606A89
:10204000316809075ABFD6F894100909316801F0C0
:10205000F001884220D901F0DFF9002840F06282C7
:10206000306840F0080030603068D4E9081220F091
:10207000F00010433060706820F47F4040EA012097
:1020800070601CE03068800340F188806068002840
:1020900040F0848046E200BF3168002F41F0080123
:1020A0003160316821F0F00141EA0001316071686E
:1020B000226A21F47F4141EA0221716042D0FFF798
:1020C000D5FE40F20401C2F2000140F208020968A4
:1020D000C2F2000210600846FFF796FA00283FF4AB
:1020E00064AF02B0BDE8F081306840F008003060B5
:1020F0003068D4E9081220F0F000104330607068B6
:1021000020F47F4040EA012070604EE720F001009B
:102110003060FFF739FA316889077FF546AF054629
:1021200004E000BF306880077FF53FAFFFF72CFA6F
:10213000401B0328F6D330688007F3D5032002B094
:10214000BDE8F08101F068F9002840F0EB81B6E7C6
:10215000316821F480313160316821F480213160AF
:10216000B0B1FFF711FA3168890317D4054602E0D0
:102170003068800312D4FFF707FA401B6528F7D3B5
:1021800030688003F4D4032002B0BDE8F08100BFC2
:10219000FFF7FAF93168890300F1A28220788007FD
:1021A00034D5042F24D00C2F08BFB8F1020F1FD054
:1021B000E1683068002900F0618240F4807030608E
:1021C000FFF7E2F93168490519D4054603E000BF7D
:1021D0003068400513D4FFF7D7F9401B0328F7D325
:1021E00030684005F4D4032002B0BDE8F08100BFA0
:1021F0003068400503D5E068002800F093817068DE
:10220000216920F0FE4040EA0160706020780007FC
:1022100039D5606950B3A069D6F89410002821F030
:10222000100118BF1031C6F89410D6F8940040F091
:102230000100C6F89400FFF7A7F9D6F894108907B3
:1022400021D4054604E000BFD6F8940080071AD4D4
:10225000FFF79AF9401B0828F6D3D6F894008007B8
:10226000F2D4032002B0BDE8F08100BFD6F894009C
:1022700020F00100C6F89400FFF786F9D6F8941014
:10228000890700F1D3812078400740F1DE80B06DEE
:102290005FEAC00808D4B06D40F08050B065B06D02
:1022A00000F080500190019847F20007C4F2000747
:1022B0003868C0051AD4386840F480703860FFF779
:1022C00063F93968C90511D4054602E03868C005CC
:1022D0000CD4FFF759F9401B0328F7D33868C00521
:1022E000F4D4032002B0BDE8F08100BFA068C107AC
:1022F0003AD1D6F8901021F00101C6F89010D6F826
:10230000901021F00401C6F89010D8BBFFF73CF9FB
:10231000D6F890100546890700F1CC81D6F89000D8
:10232000000640F18B80D6F8900020F08000C6F8BF
:102330009000D6F89000000540F1808041F2893786
:1023400004E000BFD6F89000000577D5FFF71CF930
:10235000401BB842F6D3D6F890000005F2D5032012
:1023600002B0BDE8F08100BFD6F89010400705D557
:1023700041F00400C6F89000D6F8901041F001003A
:10238000C6F89000FFF700F9D6F8901005468907C7
:1023900014D441F2893703E0D6F8900080070DD4B9
:1023A000FFF7F2F8401BB842F6D3D6F8900080074A
:1023B000F2D4032002B0BDE8F08100BFA168D6F8D6
:1023C000900009061CD420F08000C6F89000D6F8D2
:1023D0009000000532D541F2893703E0D6F890002D
:1023E00000052BD5FFF7D0F8401BB842F6D3D6F83E
:1023F00090000005F2D5032002B0BDE8F08100BFD7
:1024000040F08000C6F89000D6F89000000515D482
:1024100041F2893704E000BFD6F8900000050DD4E2
:10242000FFF7B2F8401BB842F6D3D6F8900000058B
:10243000F2D4032002B0BDE8F08100BFB8F1000F74
:1024400003D4B06D20F08050B065207880062CD584
:10245000A16AD6F89800E9B140F00100C6F89800EA
:10246000FFF792F8D6F8981089071ED4054603E0C6
:10247000D6F89800800718D4FFF786F8401B032889
:10248000F6D3D6F898008007F2D4032002B0BDE856
:10249000F08100BF20F00100C6F89800FFF774F843
:1024A000D6F89810890700F1D580E56A002D00F074
:1024B000A880B06800F00C000C2837D1012D31D075
:1024C000F068216B00F003028A422BD1616B6FF040
:1024D0000F0202EB011100F0F0028A4222D1A16B3F
:1024E00000F4FE42B2EB012F1CD1E16B00F0784208
:1024F000B2EBC16F16D1216C0022CFF6E07202EA76
:10250000015100F4C002A1F500118A420AD1616CA8
:102510004FF07E4202EA016100F0C06001F17E41AD
:1025200088426ED0012002B0BDE8F081306820F012
:1025300080703060FFF728F83168022D054657D1CA
:10254000880138D4F06848F20C01C0F29F1100EA0B
:10255000010C04F13007D4E910540020CFF6E070EC
:102560008ECF00EA05506FF00F0505EB021241EA2D
:102570000C01114341EA0321A0F500104FF07E4504
:1025800005EA0462084340EAC76002F17E4108435D
:10259000F060306840F080703060F06840F080702B
:1025A000F060FEF7F1FF316889012AD4044612E099
:1025B00030688001C6D5FEF7E7FF401B0328F7D33C
:1025C00030688001F4D5032002B0BDE8F08100BF7F
:1025D0003068800115D4FEF7D7FF001B0328F7D31E
:1025E00030688001F4D4032002B0BDE8F08100BF60
:1025F00088010ED4F0684FF6FC71CFF6EE6108400A
:10260000F060002002B0BDE8F08100BF30688001BA
:10261000F0D5FEF7B9FF401B0328F7D330688001DF
:10262000F4D5032002B0BDE8F08100BF054604E008
:10263000D6F8940080077FF526AEFEF7A5FF401B75
:102640000828F5D3D6F894008007F1D5032002B00E
:10265000BDE8F081054604E0D6F8980080077FF5D4
:1026600024AFFEF791FF401B0328F5D3D6F898005E
:102670008007F1D5032002B0BDE8F08120F480701E
:102680003060FEF781FF316849057FF5BFAD054633
:1026900004E000BF306840057FF5B8ADFEF774FF79
:1026A000401B0328F6D330684005F3D5032002B061
:1026B000BDE8F08141F2893705E000BFD6F890000F
:1026C00080077FF52BAEFEF75FFF401BB842F5D3C6
:1026D000D6F890008007F1D5032002B0BDE8F08164
:1026E000054603E0306880037FF558ADFEF74CFFE8
:1026F000401B6528F6D330688003F3D5032002B071
:10270000BDE8F08100F010BF90F83C20012A4FF0A6
:10271000020258D010B580F83D20026843F2004C08
:102720005368D2F808E0C4F2010C624505D042F6C5
:102730000044C4F20104A24203D14C6823F47003A4
:1027400023430C6823F07003234340F6FF34C4F2A4
:102750000004A242536011DD43F2FF33C4F20103CF
:102760009A421BDC40F60043C4F200039A421DD09B
:1027700042F60043C4F201030DE000BFB2F1804F06
:1027800014D040F20043C4F200039A420ED040F647
:102790000003C4F200039A4208D00CE044F20003A4
:1027A000C4F201039A4218BF624504D189682EF031
:1027B0008003194391600121002280F83D1080F8C8
:1027C0003C20BDE81040104670470000002804BFC0
:1027D0000120704710B5044690F83D0028B900204C
:1027E00084F83C00204600F023F8022084F83D00E5
:1027F0002068211D00F044FF012084F8480084F87F
:102800003E0084F83F0084F8400084F8410084F8DA
:10281000420084F8430084F8440084F8450084F8BA
:10282000460084F8470084F83D00002010BD0000F9
:10283000006840F60041C4F20001884218BF7047AA
:1028400081B041F25800C4F20200016841F0080171
:102850000160006800F008000090009801B0704727
:1028600090F83D10012919D1022180F83D1001682E
:1028700040F6FF30C4F20000814211DD43F2FF3028
:10288000C4F2010081421BDC40F60040C4F20000AB
:10289000814221D042F600401AE000BF012070477B
:1028A000B1F1804F18D040F20040C4F200008142E4
:1028B00012D040F60000C4F2000081420CD019E0B2
:1028C00044F20000C4F20100814205D043F200400E
:1028D000C4F2010081420DD188680722C0F20102D2
:1028E0000240062A4FF0000018BFB2F5803F01D128
:1028F000704700BF086840F0010008600020704782
:102900000146006841F21113026A1A4204D0012202
:10291000002081F83D207047026A40F244431A4289
:10292000F5D1026822F0010202600122002081F844
:102930003D20704710B5044690F83C0001284FF048
:10294000020008BF10BD012284F83C2084F83D003D
:10295000206888238268CFF6CE731A4082600A68A6
:102960004F2A0FDC1F2A23DD202A18BF302A23D04C
:10297000402A49D14B68CA68194601F0A1F820687D
:1029800040211AE06F2A1DDDB2F5005F26D0B2F5B6
:10299000805F2ED0702A37D1D1E9012CCB686146F7
:1029A00000F012FF2068816841F0770120E000BF4D
:1029B000002A18BF102A27D1114600F00FFF00206F
:1029C00023E000BF502A17D0602A1DD14B68CA6887
:1029D000194601F087F820686021EEE7D1E9012C63
:1029E000CB68614600F0F0FE2068816841F48041C8
:1029F0008160002009E000BF4B68CA68194601F0F9
:102A00005FF820685021D8E70120012184F83D10AB
:102A1000002184F83C1010BD10B5044690F83C002D
:102A2000012804BF022010BD4FEAB2020120052A8E
:102A300084F83C001CD8DFE802F003070B0F1317E3
:102A4000206800F0D7FE12E0206800F013FF0EE0CF
:102A5000206800F057FF0AE0206800F09BFF06E0C6
:102A6000206800F0C9FF02E0206800F0F7FF0020B6
:102A7000002184F83C1010BD002804BF01207047DD
:102A800010B5044690F83D0028B9002084F83C00B9
:102A9000204600F023F8022084F83D002068211D24
:102AA00000F0EEFD012084F8480084F83E0084F830
:102AB0003F0084F8400084F8410084F8420084F824
:102AC000430084F8440084F8450084F8460084F804
:102AD000470084F83D00002010BD00007047000052
:102AE00090F88410012904BF022070472421C0F807
:102AF000881002681168136823F00103136021F045
:102B000000530021416613602022C0F8882080F81D
:102B10008410084670470000B0B5044690F8840061
:102B2000012804BF0220B0BD012084F884002420C5
:102B3000C4F8880020680568026822F0010202607B
:102B4000826822F0606211438160204600F0DCFF61
:102B5000206805602020C4F88800002084F88400E4
:102B6000B0BD0000B0B5044690F88400012804BF51
:102B70000220B0BD012084F884002420C4F888001D
:102B800020680568026822F001020260826822F073
:102B9000604211438160204600F0B6FF2068056066
:102BA0002020C4F88800002084F88400B0BD000014
:102BB00010B5A8B10446D0F8880028B9002084F8E0
:102BC0008400204600F026F82420C4F888002068FD
:102BD000016821F001010160204601F06FF908B1A0
:102BE000012010BDA06A00281CBF204600F0BAFFDB
:102BF0002168486820F490404860886820F02A00E6
:102C00008860086840F0010220460A60BDE8104074
:102C100001F01EB810B5AAB00446684604309021F1
:102C2000FDF7B3FD206848F20001C4F200018842BC
:102C300002D02AB010BD00BF202000906846FEF7E9
:102C4000ADFD002818BFFEF799FB41F24C00C4F21D
:102C50000200016941F001010161016901F0010116
:102C600025912599016841F040010160006800F05C
:102C7000400025902598FEF771FD4FF4C070259017
:102C8000022026900020CDE927000820299041F657
:102C90000000C4F2022025A9FEF7A2FB2AB010BD55
:102CA0002DE9F04381B00446D0F88C0020281EBFE7
:102CB000022001B0BDE8F0830E4600294FF001006C
:102CC0001CBF1746002A03D101B0BDE8F08300BF46
:102CD000002022211D46C4F89000C4F88C10E06644
:102CE000FEF752FCA4F85C70A4F85E70A168804600
:102CF00071B1B1F1805F0FD0B1F5805F10D1206963
:102D000040B940F2FF17A4F86070B146002618E001
:102D1000206938B9FF2706E0206918B13F2702E093
:102D2000002700E07F274FF00009A4F8607008E05A
:102D3000384029F8020B0026B4F85E000138A4F8E8
:102D40005E00B4F85E0078B12046202100224346A0
:102D5000009501F011FA78B92068002E406AE7D09A
:102D6000384006F8010BE7E700202021C4F88C105A
:102D700001B0BDE8F08300BF03202021C4F88C100F
:102D800001B0BDE8F08300002DE9F04182B00446B7
:102D9000D0F8880020281EBF022002B0BDE8F081D4
:102DA0000D4600294FF001001CBF1746002A03D131
:102DB00002B0BDE8F08100BF0020C4F890002120DF
:102DC0009846C4F88800FEF7DFFBA4F85470A4F816
:102DD0005670A1680746B1F5805F01D1206918B12E
:102DE0002E4600250EE000BF00260BE035F8020B52
:102DF00021686FF35F2088620026B4F8560001381E
:102E0000A4F85600B4F8560080B120468021002274
:102E10003B46CDF8008001F0AFF9C8B9002EE5D0EF
:102E200016F8010B21688862E7E700BF20464021C1
:102E300000223B46CDF8008001F09EF92021C4F825
:102E40008810002818BF032002B0BDE8F08100BF41
:102E50002020C4F88800032002B0BDE8F081000003
:102E6000FEE7000081B041F24C00C4F202000168AC
:102E700041F040010160006800F0400000900098BF
:102E800001B0FEF76BBC000080B50020FEF782FBAE
:102E900020B9FEF78FFB002808BF80BDFEF76EFA51
:102EA00080B542F6740048F200034FF4E131C2F2FB
:102EB00000000022C4F200034FF00C0CC0E9003106
:102EC000C0E90222C0E9042C8261C0E908228262C2
:102ED0004266FFF76DFEC0B942F67400C2F2000010
:102EE0000021FFF73FFE80B942F67400C2F20000F5
:102EF0000021FFF711FE40B942F67400C2F2000053
:102F0000FFF7EEFD002808BF80BDFEF737FA00008E
:102F100010B58EB042F6081040F600420021C2F211
:102F20000000C4F200024FF0FF330D91CDE90B1108
:102F30000891CDE90511CDE90311C0E90021C0E9EF
:102F4000021301618161FFF741FC60BB4FF48050C7
:102F50000A9042F60810C2F200000AA9FFF7EAFC44
:102F600008BB42F60810C2F20000FFF785FDD0B999
:102F700042F608100024C2F2000007A90794099441
:102F8000FFF7C2FB78B942F60810C2F200006946AA
:102F90000022CDE9004402940494FFF73DFD00288F
:102FA00004BF0EB010BDFEF7E9F90000FEE7000017
:102FB000FEE7000000F0070080F00703032B28BFA6
:102FC00003234FF0FF3C04380CFA03F338BF002012
:102FD000994381400CFA00F022EA00000843704750
:102FE000704700002DE9F04140F27008C2F200087D
:102FF0000446D8F80C002568D0E9047690E80E1055
:1030000085E80E00C5E904762E4646F80CCFD0E9D7
:1030100006C2D0E90837D0E90A01C5E906C2C5E908
:103020000837C5E90A010520E060306020682860A3
:10303000284600F037F82879A0B12068D0E9045676
:1030400090E88E0084E88E00C4E9045600F1180769
:10305000D0E90A608ECFC4E90A6004F118008EC07E
:10306000BDE8F0810620E860207A05F1080100F053
:1030700049F8D8F80C10E8680B680A2132462B6032
:10308000BDE8F04100F062B840F27001C2F2000108
:103090004A78412A18BF704702688969511A093174
:1030A0000160704740F27001C2F20001CA684AB183
:1030B00012680260C868896900F10C020A2000F0F9
:1030C00045B800BF0020896900F10C020A2000F019
:1030D0003DB8000040F27000C2F200004178426941
:1030E000412908BF42F0010242214261017070474C
:1030F00040F27000C2F200004121417000214161A4
:1031000070470000B0B50C460546FEF763F900288D
:10311000284608BF0320042D207088BFB0BD0020C2
:10312000DFE805F011040E12100000BF40F2880025
:10313000C2F20000016803206429C8BF002002E039
:10314000012000E002202070B0BD000008440230E1
:103150001060704710B502F1050C02F1060EC8248C
:1031600040F82C3040F82E3000EB820302FB0411B3
:10317000C3F88CC001F57A7303EB820243F82EC0CA
:10318000146943F82CC0631C136150F82C0001EB48
:103190008C0141F28832885040F28800C2F200006F
:1031A0000521016010BD0000F0B581B00446006843
:1031B00041F2000703280D46C4F202070AD0022894
:1031C00034D0012802D13868800707D4012001B02B
:1031D000F0BD00BF386810F4C02FF7D0386820F079
:1031E00080603860FEF7D0F9064600BF38680001FD
:1031F00007D5FEF7C9F9801B0328F7D3386800010B
:1032000063D4012D16D09DBB386948F20C01C0F281
:10321000FF71084094E84E0040EA03206FF00F036E
:1032200040EAC66003EB0212084339E03868400503
:10323000CCD5D3E748F20C013869CFF6FF112269EB
:10324000002601F1B461CFF6E0760840D4E900131E
:1032500006EA0252A6686FF00F0540EA0620A2F5C2
:10326000001205EB031308431043184319E000BF95
:10327000386948F20C016369CFF6FF114FF07E46C2
:103280000840D4E9001206EA0363A6686FF00F0550
:1032900040EA062003F17E4305EB0212084318437F
:1032A00010433861386840F080603860FEF76CF990
:1032B000054600BF386800010AD4FEF765F9401BD7
:1032C0000328F7D33868000102D4032001B0F0BD11
:1032D000A069396908433861002001B0F0BD0000E1
:1032E00070B50446006841F200060328C4F20206E5
:1032F0000AD002280ED001280AD1306880075CBFAE
:10330000012070BD0BE000BF306810F4C02F06D163
:10331000012070BD306840055CBF012070BD306881
:1033200020F080503060FEF72FF9054630688000AD
:1033300007D5FEF729F9401B0328F7D33068800032
:1033400025D4706948F20C01C0F2FF71084094E87E
:103350002E0040EA03206FF00F0340EAC56003EB44
:103360000212084310437061306840F080503060B2
:10337000FEF70AF9054600BF306880000AD4FEF760
:1033800003F9401B0328F7D33068800002D40320E0
:1033900070BD00BF2069716908437061002070BD75
:1033A00041F20C00C4F20200016801F0030201685E
:1033B000012A13D0C1F30311032A01F1010118BF3F
:1033C000022A13D142F200420368C0F2F402B2FBB7
:1033D000F1F1C3F3062202FB01F114E050F80C1CDA
:1033E000090705D4D0F88810090A04E000210AE092
:1033F00050F80C1C090945F68C2201F00F01C0F6AB
:10340000000252F8211000680222C0F3416002EB72
:103410004000B1FBF0F07047B0B582B041F2580502
:10342000C4F2020529680446C90017D4286840F090
:1034300080502860286800F0805001900198FEF7C5
:1034400097F9296821F0805129606FF400710842D2
:103450000AD0802C10D9032019E000BFFEF788F9AC
:103460006FF400710842F4D1812C0FD30120A02CFD
:1034700088BF02200BE000BFA4F17000B0FA80F01A
:103480004009802C08BF022001E000BF002042F26A
:103490000001C4F202010A6822F00F0202440A602D
:1034A000096801F00F01081A18BF012002B0B0BD71
:1034B0007047000070B542F6541642F674040025B9
:1034C000C2F20006C2F2000456FA85F1204601223B
:1034D0004FF6FF73FFF7E4FB013556FA85F010F85D
:1034E000010C0D28F0D170BD0146002082B28A5C2B
:1034F0008AB140F0010293B2CB5C5BB140F00202B2
:1035000093B2CB5C33B140F0030293B20430CB5C96
:10351000002BEBD1104682B242F67400C2F20000DA
:103520004FF6FF73FFF730BC70B501380024B4EBE1
:10353000106F1CBF012070BD4EF21005CEF20005C9
:1035400068604FF0FF300721072600F099FE204603
:10355000AC602E6070BD0000FEF736B810B598B0B4
:1035600006A804302821FDF710F900200024FEF7FA
:103570009FF820BB10206021069001200F910221AE
:10358000CDE90D04CDE911101390372014900720D8
:10359000CDE9150106A81791FEF7F2FC78B90F20C6
:1035A0000190032002900020CDE90300059001A8BE
:1035B0000521FEF75BFB002804BF18B010BDFDF726
:1035C000DDFE000041F20C00C4F2020050F80C1CB9
:1035D000090703D4D0F88810090A02E050F80C1C3F
:1035E000090945F68C2201F00F01C0F6000252F8DD
:1035F000211050F8042CC2F38102DFE802F024030A
:10360000030900BF42F20041C0F2F4011BE000BF19
:1036100002680368920742F20042C3F30313C0F248
:10362000F40258BF0A4601680133B2FBF3F2C1F35A
:103630000621036801FB02F1C3F34162022303EB9D
:103640004202B1FBF2F140F20802C2F20002116044
:1036500050F8040C45F67423C0F30310C0F60003C1
:10366000185C21FA00F01060704700004EF6885098
:10367000CEF20000016841F4700101607047000063
:1036800040F6FF330268C4F2000398422EDCB0F12A
:10369000804F3DD040F20043C4F20003984237D03F
:1036A00040F60003C4F20003984231D042F6FF33E3
:1036B000C4F20103984235DD43F6FF73C4F20103FF
:1036C00098423FDD44F20003C4F20103984253D014
:1036D00044F60003C4F2010398424DD044F2004383
:1036E000C4F20103984247D04AE000BF40F60043CD
:1036F000C4F2000398420BD043F20043C4F201032A
:10370000984205D042F60043C4F201039842CDD15D
:103710004B6822F070021A4342F6FF33C4F20103F1
:103720009842C9DC40F2FF73C4F20003984217DCF0
:10373000B0F1804F20D040F20043C4F20003984221
:103740001AD01DE042F60043C4F20103984213D0A0
:1037500043F20043C4F2010398420DD010E000BFD1
:1037600040F60003C4F20003984205D040F600433F
:10377000C4F20003984203D1CB6822F440721A438A
:1037800080B54B6922F080021A43D1F800C0D1F80D
:1037900008E00260A0F18042A2F59632830543EA78
:1037A0009222C0F82CE0072AC0F828C0BDE880406B
:1037B00007D8012303FA02F212F0E50F1CBF0969D2
:1037C0000163012141617047D0F808C0114341EA0B
:1037D00003212CF47F4211438160704782684FF6C9
:1037E0008873CFF6CF731A40114341F0070181600F
:1037F00070470000B0B5026AA0F1804422F00102D7
:103800000262036AA4F5963485054268D0F818E090
:1038100045EA94248D68D1F800C023F00203072CF8
:1038200043EA05030AD80125A54015F0E50F1FBF9F
:10383000CD6823F00C0325F004052B43072C0BD88F
:10384000012505FA04F414F0E50F1FBFD1E9054581
:1038500022F4407222432A434FF68C74CFF6FE7452
:103860000EEA040545EA0C0542608561496841633A
:103870000362B0BDB0B5026A22F010020262026AB1
:103880004368D0F818C08C6822F0200242EA041283
:1038900043F20044D1F800E0C4F20104A04205D094
:1038A00042F60044C4F20104A04207D1CC686FF094
:1038B000400505EA041422F0C0022243A0F180442E
:1038C000A4F59634850545EA9424072C0CD80125E7
:1038D00005FA04F414F0E50F1FBFD1E9054523F400
:1038E00040632C4343EA840348F6FF44CFF6FF6469
:1038F0000CEA040545EA0E25436085614968816349
:103900000262B0BDB0B5026A22F480720262036A3C
:103910004268D0F81CE08C6823F4007343EA042367
:1039200043F20044D1F800C0C4F20104A04205D023
:1039300042F60044C4F20104A04207D1CC6840F230
:10394000FF45240223F44063AC432343A0F18044A9
:10395000A4F59634850545EA9424072C0CD8012556
:1039600005FA04F414F0E50F1FBFD1E9054522F470
:1039700040522C4342EA04124FF68C74CFF6FE7488
:103980000EEA040545EA0C054260C5614968C16359
:103990000362B0BD70B5026AA0F1804422F4805287
:1039A000A4F596348505026245EA9425D0F820C036
:1039B0004368C269D1F800E08C68072D0AD8012657
:1039C00006FA05F515F0E50F1EBF4D6923F4804397
:1039D00043EA851348F6FF45CFF6FF652A4042EAE1
:1039E0000E222CF400564360C261496846EA043254
:1039F0000164026270BD000070B5026AA0F18044EB
:103A000022F48032A4F596348505026245EA9425B5
:103A1000D0F820C04368426DD1F800E08C68072DD3
:103A20000AD8012606FA05F515F0E50F1EBF4D6907
:103A300023F4803343EA05234FF68F75CFF6FE75E6
:103A40002A4042EA0E022CF400364360426549687F
:103A500046EA04428165026270BD000070B5026AE8
:103A6000A0F1804422F48012A4F596348505026208
:103A700045EA9425D0F820C04368426DD1F800E0B3
:103A80008C68072D0AD8012606FA05F515F0E50F12
:103A90001EBF4D6923F4802343EA852348F6FF7552
:103AA000CFF6FF652A4042EA0E222CF4001643604E
:103AB0004265496846EA0452C165026270BD000071
:103AC000D0F820C0036A23F001030362836923F066
:103AD000F00343EA02122CF00A03194382610162E7
:103AE00070470000036A23F0100303628369D0F873
:103AF00020C023F4704343EA02322CF0A00343EACF
:103B00000111826101627047416E19B380B501688D
:103B100045F6143C8A688968C0F6000C490F45F6E2
:103B20001C3E1CF80130C0F6000EC2F342621EF8C3
:103B30000110DB00B3FBF1F11CF802301EF802208B
:103B4000DB00B3FBF2F2BDE88040A0F86A10A0F8F9
:103B50006820704701210122A0F86A10A0F86820AF
:103B600070470000816ACA070ED18A0717D44A0736
:103B700020D40A0729D4CA0632D48A063BD480B599
:103B80004A0644D458E000BF0268D0F82CC05368FD
:103B900023F4003343EA0C0353608A07E7D5026835
:103BA000D0F830C0536823F4803343EA0C035360E9
:103BB0004A07DED50268D0F834C0536823F4802366
:103BC00043EA0C0353600A07D5D50268D0F838C021
:103BD000536823F4004343EA0C035360CA06CCD570
:103BE0000268D0F83CC0936823F4805343EA0C0386
:103BF00093608A06C3D50268D0F840C0936823F466
:103C0000005343EA0C03936080B54A0614D502685A
:103C1000D0F844C05368BCF5801F23F4801343EAF6
:103C20000C03536008D1D2F804C0D0F848E02CF45B
:103C3000C00343EA0E035360090658BF80BD016804
:103C4000C06C4A6822F400221043486080BD000026
:103C5000B0B582B004460020C4F89000FDF794FC93
:103C6000216805460A68120737D56FF07E4C20465A
:103C70004FF4001100222B46CDF800C000F07CFA72
:103C800050B300BF206850E8000F216820F080008A
:103C900041E80002DAB1206850E8000F216820F006
:103CA000800041E8000292B1206850E8000F2168CE
:103CB00020F0800041E800024AB1206850E8000F7F
:103CC000216820F0800041E80002002ADAD120209B
:103CD000C4F8880060E000BF21680868400761D52B
:103CE0006FF07E4C20464FF4800100222B46CDF829
:103CF00000C000F041FA002854D000BF206850E80E
:103D0000000F216820F4907041E80002E2B12068C1
:103D100050E8000F216820F4907041E800029AB149
:103D2000206850E8000F216820F4907041E80002FC
:103D300052B1206850E8000F216820F4907041E8EB
:103D40000002002ADAD100BF206850E8020F216883
:103D500020F0010041E80202DAB1206850E8020FC9
:103D6000216820F0010041E8020292B1206850E889
:103D7000020F216820F0010041E802024AB12068E8
:103D800050E8020F216820F0010041E80202002AF9
:103D9000DAD12020C4F88C000320002184F884109C
:103DA00002B0B0BD2020C4F88800C4F88C00002008
:103DB000E0662067002184F8841002B0B0BD0000E6
:103DC000016851E8001F026821F4907142E8001375
:103DD000DBB1016851E8001F026821F4907142E8EC
:103DE000001393B1016851E8001F026821F490713B
:103DF00042E800134BB1016851E8001F026821F44A
:103E0000907142E80013002BDAD14FF6FE7CCEF61B
:103E1000FF7C00BF026852E8022F036802EA0C022E
:103E200043E80221D9B1016851E8021F026801EAA2
:103E30000C0142E8021393B1016851E8021F0268C5
:103E400001EA0C0142E802134BB1016851E8021F7C
:103E5000026801EA0C0142E80213002BDAD1C16EBC
:103E6000012924D1016851E8001F026821F01001E6
:103E700042E80013DBB1016851E8001F026821F03D
:103E8000100142E8001393B1016851E8001F026875
:103E900021F0100142E800134BB1016851E8001F06
:103EA000026821F0100142E80013002BDAD1202132
:103EB000C0F88C100021C1664167704770B5044698
:103EC0002269D4E9021300680A436169E66905685A
:103ED000114346F6F312CCF6FF722A4011433143E8
:103EE0000160416848F2000C21F4405119434160DF
:103EF000A269C4F2000C60451CBF216A0A438168B4
:103F00004FF2FF43C1F2FF13194011438160C16AB0
:103F1000D4F824E021F00F0141EA0E01C16244F619
:103F2000FF71C4F2000188424FF0100318DC44F224
:103F30000041C4F20001884228D044F60001C4F2D6
:103F4000000188422AD044F60041C4F200018842B0
:103F500042D141F28801C4F2020109688B0933E0C1
:103F600045F20001C4F2000188421FD0604525D00F
:103F700043F60001C4F2010188422DD141F28801CB
:103F8000C4F202010B6878A222E000BF41F288016E
:103F9000C4F2020109688B0816E000BF41F28801F3
:103FA000C4F2020109680B090EE000BF41F288016A
:103FB000C4F2020109680B0A06E000BF41F2880161
:103FC000C4F2020109688B0A45F6E422C0F6000239
:103FD00003F0030152F82130604542F20040C0F284
:103FE000F40015D0B6F5004F22D1082B4FF0010197
:103FF00000F2B180DFE803F006606EAF64AFAFAFF0
:104000006C0000BFFDF744FF002840F05D809EE09B
:10401000082B4FF0010100F29E80DFE803F0051B42
:10402000299C1F9C9C9C2700FDF732FFD0B98EE095
:10403000082B4FF0010100F28E80DFE803F00567E6
:10404000738C6B8C8C8C7100FDF722FF002864D17F
:104050007DE000BFFDF72EFF20B978E0FDF73CFFC3
:10406000002874D0D4F824E002E000BF4FF40040F0
:1040700045F6CC21C0F6000131F81E106268B0FB95
:10408000F1F002EB420188424FF0010163D31303C8
:10409000984260D8010E000210EB520041F100017D
:1040A0000023FCF780F94FF60052A0F54071C0F2F2
:1040B0000F02914249D34DE0FDF7FCFE20B946E0E6
:1040C000FDF70AFF002842D0D4F824E002E000BF48
:1040D0004FF4004045F6CC21C0F6000131F81E1027
:1040E0006268B0FBF1F0510801EB4000B0FBF2F068
:1040F0004FF6EF72A0F1100191422BD84FF6F071FC
:10410000C0F34202084010441FE000BFFDF7D2FE9A
:1041100018B91CE0FDF7E0FEC8B1D4F824E001E0D6
:104120004FF4004045F6CC21C0F6000131F81E10D6
:104130004FF6EF72B0FBF1F0616800EB5100B0FB9D
:10414000F1F0A0F11001914204D82168C86000216B
:1041500001E000BF01214FF00110A06600220846D7
:104160006267A26770BD00BF01000000040000008C
:1041700002000000080000002DE9F041064600683A
:104180001446C2690D461140491BB1FA81F1490933
:10419000A14227D1DDF81880B8F1000F26D018F120
:1041A000010129D1C1692940491BB1FA81F14909AD
:1041B000A14217D1C1692940491BB1FA81F14909CE
:1041C000A1420FD1C1692940491BB1FA81F14909C6
:1041D000A14207D1C1692940491BB1FA81F14909BE
:1041E000A142DFD00020BDE8F08100BFFDF7CCF98F
:1041F0000320BDE8F08100BF1F4607E0C0692840EA
:10420000401BB0FA80F04009A042EBD1FDF7BCF9A9
:10421000C01B404584BF0320BDE8F08130680168C1
:104220004907EBD5C169090712D4C1690905E5D56C
:104230004FF4006101623046FFF7C2FD2020C6F84E
:104240009000002086F884000320BDE8F08100BFC4
:10425000082404623046FFF7B3FD0020C6F8904002
:1042600086F884000120BDE8F0810000FEE7000030
:104270004EF60C50CEF200000068C0F302207047EA
:1042800000F16043490103F564434EF6145C00F00D
:104290000F02CEF2000C002848BF02EB0C0319708D
:1042A000704700004EF60C51CEF200010A684FF63E
:1042B000FF031A4060F30A2242F0806040F0FD7074
:1042C00008607047FDF78EF9FFF748F9FEF7CAFD61
:1042D000FEF7DAFDFEF7E4FDFEF71AFE00F014F833
:1042E000FEE7000080B542F60810C2F20000FEF7BB
:1042F000B7FA40F62440C4F20000002101600068D3
:1043000080BD0000000000002DE9F04F81B02DEDD0
:10431000028BBCB03020FCF717F840F2700AC2F2F2
:10432000000A0446CAF808003020FCF70DF8002106
:104330000171022101722821C16046F24811CAF8B8
:104340000C0004601030C0F600011F22FCF7D8F901
:10435000DFF87C070DF1C80C31900FF27470071D67
:104360008ECFD0E90565C0698CE88E0040F26411FB
:104370003890C2F200010A20C1F85C0645F63630DA
:10438000C0F60000CDE93665FFF7AEF8DAF80410A4
:104390000FF290700FF25872002908BF1046FFF715
:1043A000A3F846F2F400C0F60000016846F22818AF
:1043B0000D91416810AD0C9181680DF1E7090B91E9
:1043C000C168C0F600080A91016909914169089124
:1043D00081690791C1690691016A0591416A049159
:1043E000816A0391C16A008E0291019046F2BB007E
:1043F000C0F60000FFF778F8FFF75CF842F65410BB
:10440000C2F20000FCF76FF9044645F6A571284694
:10441000C0F600012246FCF73FF82846FFF764F893
:10442000FFF760FF002C21460F94CAF8100000F03F
:1044300081804FF0010B0DE005EB45063A9C3BA84F
:1044400096FBF4F53B95FEF71FFE0F980BF1010B61
:10445000834569D8FEF74CFEFEF73CFE45F6F4278F
:10446000C0F6000797E84F00D7E905540DF1A40EF8
:10447000D7F81CC08EE84F0001208DF8E70031A866
:1044800029A9CDE92E54CDF8C0C0FCF789FFB0FAB8
:1044900080F04009CAF8140007203A900220032156
:1044A0003AAA0325FEF752FE3A9B40F29C0040F2E6
:1044B0006411C2F20000C2F200010322FEF74AFEBC
:1044C000DAF80C00FEF78EFD9AF800004128B3D30D
:1044D0004126032506E000BF01369AF80000F1B23C
:1044E0008142A9D89DF8E740F0B24321FCF74CFF88
:1044F0008442F1D100204946FEF704FE98E82F00DF
:104500000DF1A40CD8E905478CE82F00B8F81C0081
:104510005D46ADF8C00098F81E002E942F978DF8D8
:10452000C200CAF818B0D7E7301BC0EBC000401B70
:1045300010AD0E9000F00EFBCAF81C0045F62430BA
:10454000C0F60000FEF7D0FF45F66A30C0F6000066
:10455000FEF7CAFF46F2F100C0F60000FEF7C4FF06
:10456000DAF8182045F65E612846C0F60001FBF730
:1045700093FF2846FEF7B8FF45F67C74C0F60004AA
:10458000284621460522FBF787FF2846FEF7ACFFA9
:10459000DAF8142045F692612846C0F60001FBF7D0
:1045A0007BFF2846FEF7A0FF284621460122FBF7A5
:1045B00073FF2846FEF798FF9AF8012045F6F6515A
:1045C0002846C0F60001FBF767FF2846FEF78CFF80
:1045D00045F62A66C0F60006284631464122FBF71A
:1045E0005BFF2846FEF780FF9AF8002045F6106131
:1045F0002846C0F60001FBF74FFF2846FEF774FF80
:10460000284631464222FBF747FF2846FEF76CFF5B
:1046100040F29C00C2F20000026A45F6487128464A
:10462000C0F60001FBF738FF2846FEF75DFF28467D
:1046300021460722FBF730FF2846FEF755FF40F2E0
:104640006410C2F20000D0F85C2645F6627128467C
:10465000C0F60001FBF720FF2846FEF745FF45F6B0
:104660000D50C0F60000FEF73FFFDAF80C0045F6EB
:10467000FC6102682846C0F60001FBF70DFF2846E2
:10468000FEF732FF0D9810900C9811900B98129035
:104690000A981390099814900898159002981B9006
:1046A00003981A90049819900598189006981790F6
:1046B000079816900198ADF870002846FEF714FF91
:1046C000DAF80C0045F644660279C0F60006284682
:1046D0003146FBF7E1FE2846FEF706FF2846214655
:1046E0000022FBF7D9FE2846FEF7FEFEDAF80C00A2
:1046F00045F62E77027AC0F6000728463946FBF7C2
:10470000CBFE2846FEF7F0FE284621460222FBF7A4
:10471000C3FE2846FEF7E8FEDAF80C0045F6147BE7
:10472000C268C0F6000B28465946FBF7B5FE28467E
:10473000FEF7DAFE284621461122FBF7ADFE284699
:10474000FEF7D2FEDAF80C0046F2490100F1100241
:104750002846C0F60001FBF79FFE2846FEF7C4FE80
:1047600045F64450C0F60000FEF7BEFEDAF8080039
:1047700045F6FA6102682846C0F60001FBF78CFE98
:104780002846FEF7B1FE45F6D470C0F60000FEF7ED
:10479000ABFEDAF80800314602792846FBF77CFECA
:1047A0002846FEF7A1FE284621460022FBF774FEAC
:1047B0002846FEF799FEDAF808003946027A2846BC
:1047C000FBF76AFE2846FEF78FFE284621460122A7
:1047D000FBF762FE2846FEF787FEDAF80800594626
:1047E000C2682846FBF758FE2846FEF77DFE28469D
:1047F00021461222FBF750FE2846FEF775FEDAF836
:10480000080046F24A0100F110022846C0F60001F5
:10481000FBF742FE2846FEF767FE45F68B50C0F6D2
:104820000000FEF761FE3B9A45F6AC612846C0F6F3
:104830000001FBF731FE2846FEF756FE28462146CA
:104840000522FBF729FE2846FEF74EFE45F6C66117
:104850000E9A2846C0F60001FBF71EFE2846FEF71A
:1048600043FE284621460D22FBF716FE2846FEF79A
:104870003BFE3A9A45F6E0612846C0F60001FBF798
:104880000BFE2846FEF730FE284621460722FBF79E
:1048900003FE2846FEF728FE9DF8E72045F67861DE
:1048A0002846C0F60001FBF7F7FD2846FEF71CFE80
:1048B000284621460122FBF7EFFD2846FEF714FEAD
:1048C00046F215012846C0F6000131AAFBF7E4FDC7
:1048D0002846FEF709FE45F6C150C0F60000FEF777
:1048E00003FE46F22F012846C0F6000129AAFBF775
:1048F000D3FD2846FEF7F8FD45F6A230C0F60000CD
:10490000FEF7F2FDDAF81000DAF81C100C1ACAF8FB
:104910002040FDF7E1FAB4EB400F07D246F2630006
:10492000C0F60000FEF7E0FD60E500BF9AED080A62
:10493000B8EE400A10EE100A00F0CCFF9FED600BBD
:1049400058EC105B43462A4600F0C6FE04460E466D
:10495000FDF7C2FA00EE100A0F98B8EE400A01EE19
:10496000100AB8EE418A28EE000A10EE100A00F094
:10497000B1FF02460B462046314600F03FFD00F0F5
:104980000BFDCAF82400FDF7A7FA00EE100A9AED15
:10499000081AB8EE400AB8EE411A28EE000A80EE76
:1049A000010A8AED0A0AFDF797FA10AE45F69671EC
:1049B0000246C0F600013046FBF76EFD3046FEF7BA
:1049C00093FD45F6D641C0F60001304640F21A226A
:1049D000FBF762FD3046FEF787FD45F6D9314CF214
:1049E000D012C0F600013046C0F25E02FBF754FD63
:1049F0003046FEF779FDDAF8240000F06BFF0B4635
:104A000045F6A1410246C0F600013046FBF744FDE1
:104A10003046FEF769FDDAF8280000F05BFF0B4630
:104A200045F643410246C0F600013046FBF734FD2F
:104A30003046FEF759FDDAF8280000F04BFF9FEDF5
:104A4000220B57EC104B3B46224600F0D7FC0B469E
:104A500045F61E410246C0F600013046FBF71CFD3C
:104A60003046FEF741FDDAF8280000F033FF224619
:104A70003B4600F0C3FC2A46434600F02DFE0446A8
:104A80000D46FDF729FA00F013FE02460B462046BC
:104A9000294600F0B3FC0B4645F678410246C0F6C5
:104AA00000013046FBF7F8FC3046FEF71DFD3CB038
:104AB000BDEC028B01B0BDE8F08F00BF00BF00BFAE
:104AC0000000000080842E410000000000749B4024
:104AD0004448525953544F4E452050524F4752412B
:104AE0004D2C203127535420535452494E47000037
:104AF00050726F6772616D20636F6D70696C656471
:104B000020776974686F757420277265676973749C
:104B1000657227206174747269627574650A0A0D82
:104B20000000000050726F6772616D20636F6D70DE
:104B3000696C65642077697468202772656769739A
:104B400074657227206174747269627574650A0AEB
:104B50000D00000080B542F60810C2F20000FDF71B
:104B6000CFFE40F62440C4F20000006880BD5FEA3A
:104B7000400C08BF91F0000F4FEA8C234FEAC1228E
:104B800043EA51514FEA1C5018BF00F5F0404FEA7C
:104B9000300018BF41F000415FEA6C5C00F02980F2
:104BA000BCF1FF3F08BF40F080407047130C06BFC8
:104BB00012044FF0100C4FF0000C130E04BF120241
:104BC0000CF1080C130F04BF12010CF1040C930F2D
:104BD00004BF92000CF1020CD30F04BF52000CF181
:104BE000010C11464FF00002A0F11F00A0EB0C00D9
:104BF000704711F0004F08BF704731F000413FF49B
:104C0000D5AF0B0C06BF09044FF0100C4FF0000C91
:104C10000B0E04BF09020CF1080C0B0F04BF0901B5
:104C20000CF1040C8B0F04BF89000CF1020CCB0FAC
:104C300004BF49000CF1010CCCF1200322FA03F36C
:104C400041EA030102FA0CF2A0EB0C0000F10100B2
:104C50007047000023F07F4720F07F4C80EA03007C
:104C600000F00040ACEB070303F57C5303F1FF03B6
:104C70002DE9804909B44FEA144324EA03484FEA76
:104C8000154B25EA0B4E0FF2042606EB13273E7850
:104C900003FB0667C7F5000707FB06F64FEAD64693
:104CA00006F102064FEA543707FB066CCCF1005CB4
:104CB0004FEA1C472CEA074C0CFB06F507FB06F4F1
:104CC00004EB15464FEA961649085FEA320234BFF4
:104CD00000204FF000404FEAD13706FB07FC4FEAB7
:104CE0001C4C0CFB0BF7D21B03FB0CF761EB070111
:104CF0000CFB0EF7B0EB074072EB17420CFB08F70A
:104D000034BFA2EB0742B2EB074261EB17414FEA17
:104D10000C444FEA910706FB07FC4FEA1C4C0CFBC6
:104D20000BF7B0EBC74072EB573203FB0CF734BF05
:104D3000A2EBC742B2EBC74261EB57310CFB0EF757
:104D4000B0EBC70072EB57720CFB08F734BFA2EB55
:104D5000C702B2EBC70261EB57714FEA816141EACA
:104D600092114FEA826242EA90124FEA806004EBAD
:104D7000CC04039F4FEAD13706FB07FC4FEA1C4CDB
:104D80000CFB0BF7D21B03FB0CF761EB07010CFBD1
:104D90000EF7B0EB074072EB17420CFB08F734BF7D
:104DA000A2EB0742B2EB074261EB17414FEA8C5589
:104DB00004EB9C244FEA910706FB07FC4FEA1C4CCE
:104DC0000CFB0BF7B0EBC74072EB573203FB0CF751
:104DD00034BFA2EBC742B2EBC74261EB57310CFBC9
:104DE0000EF7B0EBC70072EB57720CFB08F734BF3D
:104DF000A2EBC702B2EBC70261EB57714FEA8161C8
:104E000041EA92114FEA826242EA90124FEA8060D0
:104E100015EB4C2544F100044FEAD13706FB07FCA3
:104E20004FEA1C4C0CFB0BF7D21B03FB0CF761EB9E
:104E300007010CFB0EF7B0EB074072EB17420CFBBF
:104E400008F734BFA2EB0742B2EB074261EB174110
:104E50004FEA813141EA92414FEA823242EA90427E
:104E60004FEA80304FEA0C7615EB1C1544F1000434
:104E700048EA03434EEA0B484FF0000EB2EB080C31
:104E800071EB030724BF624639464EEB0E0E4FF01E
:104E9000000B0018524149414BEB0B0BB2EB080CD5
:104EA00071EB03077BF1000B24BF624639464EEBE2
:104EB0000E0E4FF0000B0018524149414BEB0B0B0B
:104EC000B2EB080C71EB03077BF1000B24BF6246C9
:104ED00039464EEB0E0E51EA020718BF46F00106A6
:104EE00016EB0E7655F1000254F1000103D5BDE832
:104EF0008901BDE80088BDE88901BDE80048B61910
:104F0000524141EB0101A3F10103704780807F7E94
:104F10007D7C7B7A7978777676757473727171702F
:104F20006F6E6E6D6C6C6B6A6A69686867666665E1
:104F30006464636362616160605F5F5E5E5D5D5C6F
:104F40005C5B5B5A5A5959585857575656555555E0
:104F50005454535352525251515050504F4F4F4E40
:104F60004E4D4D4D4C4C4C4B4B4B4A4A4A4949498E
:104F700048484847474747464646454545444444D0
:104F80004443434343424242424141419C46002BF9
:104F900030D477002BD04FEA37071CB503B44FF05D
:104FA00010004FF01001BAF1000F06D0BCF1000F55
:104FB000DCBF40F0080040F008014FF000000FBCDB
:104FC000BDE810400BF1010BBBF1010F08BF5FEA18
:104FD000170722BF12F1010211F101014FF0004148
:104FE00043F1000300F0004043EA00007047F9D3AA
:104FF0005708D0E746EA06464FEA164613F1400F37
:105000001FDD13F1200FDFBF16430A4600212033B6
:105010005B42BED0C3F1200746EA06464FEA164679
:1050200002FA07F746EA070622FA03F2C3F120075D
:1050300001FA07F742EA070221FA03F14FF00003F1
:10504000A7E746EA020646EA06464FEA164646EA59
:105050000106BCBF46EA0646360C4FF000034FF08F
:1050600000024FF0000194E72DE9804C70B49A469D
:10507000934691E8380007C831EA400C48BF34EA4B
:10508000430C03D5FFF7E6FDFFF780FFF0BCBDE85A
:10509000008C2DE9804C70B49A46934691E8380014
:1050A00007C810F0804F08BF13F0804F03D100F005
:1050B00005F8FFF76BFFF0BCBDE8008C20F07F47E0
:1050C00023F07F4C80EA030000F0004007EB0C0364
:1050D000A3F57C53A3F1FE0392F0000F00F0B38020
:1050E00095F0000F00F077802DE901494FEA11405B
:1050F00021EA00484FEA144624EA064700FB06FC72
:1051000008FB06F607FB08F818EB06484CEB164CB4
:1051100000FB07F718EB07484CEB17404FEA124B20
:1051200022EA0B4E4FEA154625EA06470BFB06FC22
:105130000EFB06F607FB0EFE1EEB064E4CEB164C66
:105140000BFB07F71EEB074E4CEB174B18EB0B084E
:1051500040F1000018EB0E0B58EB000840F1000086
:105160008F1A4FF000014FF000063CBFC943661B89
:1051700014BFB5EB040C00213CBFC943F61B4FEA3A
:10518000174427EA04454FEA1C472CEA074C04FB66
:10519000076205FB07F70CFB05F616EB074642EB2B
:1051A000174204FB0CFC16EB0C4642EB1C421BEBBB
:1051B000060658EB020241414EEA8E0E46EA9E0672
:1051C00001D5BDE80189B619524141EB0101A3F1B6
:1051D0000103BDE801894FEA144524EA05464FEA78
:1051E000114721EA074C05FB07F406FB07F70CFB08
:1051F00006F111EB074144EB174405FB0CFC11EBE6
:105200000C4144EB1C444FEA124722EA074C05FBD1
:1052100007F206FB07F70CFB06F616EB074642EB18
:10522000174205FB0CFC16EB0C4642EB1C456A18BA
:1052300054F1000148BF7047B619524141EB0101DA
:10524000A3F10103704795F0000F37D04FEA1142E8
:1052500021EA02464FEA144724EA074C02FB07F111
:1052600006FB07F70CFB06F414EB074441EB174170
:1052700002FB0CFC14EB0C4441EB1C414FEA1547BC
:1052800025EA074C02FB07F506FB07F70CFB06F6C1
:1052900016EB074645EB174502FB0CFC16EB0C46DC
:1052A00045EB1C42121951F1000148BF7047B61975
:1052B000524141EB0101A3F1010370474FEA14454C
:1052C00024EA05464FEA114721EA074C05FB07F19E
:1052D00006FB07F70CFB06F212EB074241EB174106
:1052E00005FB0CFC12EB0C4251EB1C414FF000068D
:1052F00048BF7047921841EB0101A3F101037047C9
:1053000003B401984100009850EAC12018BF04205E
:105310004A0D18BF40F0010040F2FF72B2EB515F3E
:1053200008BF40F00200012808BF052002B0704706
:1053300030380A2801D20120704700207047000051
:1053400010B500290AD00878002807D0054878440D
:10535000FBF742FA002801D0002010BD0248784433
:1053600010BD00003A0E0000320E000010B50029FA
:105370000AD00878002807D005487844FBF72CFAB3
:10538000002801D0002010BD0248784410BD000064
:105390002A0E0000220E000021F0004201F000431E
:1053A000A2F16052B2F5801F28BFD2F17F6C0BD9F9
:1053B0005FEA001C43EAC20242EB507018BF70471C
:1053C00028BF20F001007047B2F5801FBCBF18460F
:1053D00070474FEA410C1CF5001F02D2084600F04E
:1053E000F7BA70B500F022FA00000089FFF7F6BFA7
:1053F0004FF00040A0F58000704700002DE9C0414B
:1054000030B4DFF8A4C23CEA111418BF3CEA13140C
:1054100000F0ED801CEA111481EA030544EAD5741A
:1054200018BF1CEA131500F0C880A4EB050404F1B2
:105430007F7404F500344FF0004545EAC12145EA88
:10544000C32341EA505143EA52534FEAC0204FEA86
:10545000C222994208BF904200F09D804FEA136536
:105460000FF24416765D4FEA134506FB05F7C7F1C8
:10547000807706FB07F74FEAD737A7FB036876422A
:10548000A7FB06CEC8F5803838BFA8F1010807FB96
:1054900008E6A6FB028C4FF0000EE6FB03CEDCF123
:1054A000000CCEF1004E38BFAEF1010EA6FB0C5839
:1054B0004FF00007E6FB0E87A1FB08C6A0FB07CE56
:1054C00016EB0E064FF0000545F10005E1FB076500
:1054D00015F1E04E7EBFA4F580345FEA46066D41CB
:1054E00016F1800745F100054FEA172747EA0567DF
:1054F0004FEA15254FEA0666A6F1DE46B6F1805F53
:1055000020D9384605EBC47124F0010C01EB0C11D5
:10551000BCF1FE6F02D8F0BCBDE8008124425CBF44
:1055200001F5801E9EEAC47F02D4F0BCBDE8008174
:10553000244200F13980A1F1C041F0BCBDE8004136
:1055400000F0C2B94FEAD02040EA41504FEAD121E1
:105550004FEAD22242EA43524FEAD323A7FB028604
:1055600007FB036605FB02661EEA0E0F58BFA6EB9B
:105570000056B6EB00564FEA520E4EEAC37E18EBC9
:105580000E0E56EB530EBCD518EB02085E417F1C85
:1055900055F10005B5E74FF480154FF000074FF0C7
:1055A00000064FF00008ACE701F1C04101F00041F6
:1055B0004FF00000F0BCBDE800810CEA131511EAC1
:1055C0000C1F00D00CE013EA0C1F00F026804FF0F7
:1055D000000081EA030101F00041F0BCBDE8008158
:1055E000F0BCBDE8004181EA030100F06DB9F0BCF8
:1055F000BDE8004170B500F019F900BF097EFC3E1E
:1056000000F007B84FF0000081EA030101F000410B
:10561000704781EA030100F057B9F0BCBDE80041D2
:1056200022494FF000007047FFFDFBF9F7F5F4F257
:10563000F0EEEDEBE9E8E6E4E3E1E0DEDDDBDAD82D
:10564000D7D5D4D3D1D0CFCDCCCBCAC8C7C6C5C48B
:10565000C2C1C0BFBEBDBCBBBAB9B8B7B6B5B4B3A2
:10566000B2B1B0AFAEADACABAAA9A8A8A7A6A5A48D
:10567000A3A3A2A1A09F9F9E9D9C9C9B9A99999851
:105680009797969595949393929191908F8F8E8EF4
:105690008D8C8C8B8B8A8989888887878685858481
:1056A00084838382828181800000FF070000F87F6D
:1056B000B0FA80F310FA03F10AD0C3F11D0303F529
:1056C00080634FEA03524FEA415002EBD121704709
:1056D0004FF000007047000070B5DFF848C11CEAC9
:1056E000111E1EBF1CEA13159EEA0C0F95EA0C0F43
:1056F00000F06F8081EA03044EEAD47EAE4421EAD2
:105700004C1123EA4C1341F4801143F48013AEF1A1
:105710007F7EA1FB024CA0FB0365361955EB0C05FF
:10572000A1FB034C4CF10003A0FB021C16EB0C0682
:10573000654153F10003094218BF46F0010613F416
:10574000007F0BD14FEA03314FEA053041EA155192
:1057500040EA165034036FF003020AE04FEAC32117
:105760004FEAC52041EA555140EA5650F4026FF025
:10577000020202EB2E4201EB025585EACE710AD0FD
:105780005FEA440C18BF24F0004450F1000041F1DE
:10579000000120EAD47040F2FE7C624500D270BD68
:1057A000A84214BF4FF080444FF04044002E08BF81
:1057B0000024BEF1806FA8BFA1F1C041BDE87040D8
:1057C00080F2828001F1C04101F000414FF0000001
:1057D00070470CEA13159EEA0C0F18BF95EA0C0FE0
:1057E00006D081EA030E4FF000000EF0004170BDBC
:1057F00000F01CF88900013E00F007B800F009B87D
:105800004FEA430C5FEA5C5C08D081EA030100F0D8
:105810005BB84FEA410C5FEA5C5CF6D102494FF09D
:10582000000070470000FF070000F87F0EF1020E35
:105830002EF0030E5EF8046B364205D4012A43EBCA
:10584000030515F5001F12D8012841EB010C1CF5CA
:10585000001F0CD80ED14FEAD17C0CEB4C0C0CF194
:10586000020C15F5001F08BF4CEBD37C04E04FF091
:10587000080C01E04FEAD37C0CEB4C0526FA05F648
:1058800006F00706B6F1040C06D20EEB860CBDE856
:1058900070404CF0010C6047DFE80CF0090B02028D
:1058A0004FF00041A1F500214FF0000070BD1946F6
:1058B0001046012851EB010418BFD4F5001484BF31
:1058C000002001F0004170BD0808A0F500114FEA6A
:1058D0003101704743004FEAD30C4FEA3C0C434080
:1058E0001FBF40070CF1605113F0FE4F70471CF0D2
:1058F000006F03D10CF00041002070470CF0004312
:1059000043EA507040EACC0010B500F00EF800BF3A
:10591000000000924FEA0001FFF7D6BF4FF00041B0
:10592000A1F500214FF0000070470EF1020E2EF09D
:10593000030E5EF8044B244204D44FEA4102B2F154
:105940007F4F11D84FEA4003B3F17F4F0CD80ED1EF
:105950004FEAD07C0CEB4C0C0CF1020CB2F17F4FF7
:1059600008BF4CEBD17C04E04FF0080C01E04FEA9B
:10597000D17C0CEB4C0324FA03F404F00704B4F1DB
:10598000040C06D20EEB840CBDE810404CF0010C68
:105990006047DFE80CF0070802024FF00040A0F576
:1059A000800010BD0846420018BFD2F1807288BF47
:1059B00000F0004010BDF1EE100A4FF6FF71C0F28A
:1059C000C03120EA010040F04070E1EE100A70475B
:1059D000FF2141EAD050C0057047FBF7ECB800004A
:1059E00002400000000000A0000000000540000090
:1059F000000000C8000000000C4000000000409CB7
:105A000000000000194000000020BCBE00000000A3
:105A100034400000BFC91B8E00000004B5400000E8
:105A2000504BCFD06607E2CF010000006C41000070
:105A30003E8251AADFEEA73401000000D9420000E7
:105A4000DCB5A0E23A301F97FFFFFFFFB44500002E
:105A5000FD25A0C8E9A3C14FFFFFFFFFFF3F0000E6
:105A60000000008000000000FF3F000000000080F8
:105A7000000000000000000000000000010203041C
:105A8000060708090000000001020304A0860100C7
:105A9000400D0300801A060000350C0040420F0044
:105AA00080841E0000093D0000127A000024F400EA
:105AB00000366E010048E801006CDC0200000000C6
:105AC00000000000000000000000000001000200D3
:105AD0000400060008000A000C001000200040002E
